:020000040000FA
:060000000A128A1110280B
:10000800FE00030EF1000A08F200831203137F08B2
:10001800F3000A128A111C290A128A111328F801FE
:10002800F90183010A128A114629F7002F28831241
:1000380003131F179F138828831203131F139F1777
:100048008828831203131F179F1788288312031306
:100058001F139F1388287708F500F6017608003AE1
:10006800031937282A287508013A03191B28033A67
:1000780003192028013A031925282A281F119F113E
:100088001F129F12B9281F159F111F129F12B928FE
:100098001F119F151F129F12B9281F159F151F1298
:1000A8009F12B9281F119F111F169F12B9281F15DB
:1000B8009F111F169F12B9281F119F151F169F12F7
:1000C800B9281F159F151F169F12B9281F119F11B8
:1000D8001F129F16B9281F159F111F129F16B928A6
:1000E8001F119F151F129F16B9281F159F151F1244
:1000F8009F16B9281F119F111F169F16B9281F1583
:100108009F111F169F16B9287408F500F601760886
:10011800003A0319902842287508013A031947281C
:10012800033A03194C28013A03195128073A0319CD
:100138005628013A03195B28033A03196028013A43
:10014800031965280F3A03196A28013A03196F2819
:10015800033A03197428013A03197928073A03194D
:100168007E28013A0319832842289F101F148316FA
:1001780003139F010800F600D928831603130F12F2
:100188008F120F13EC28831603130F168F120F13F9
:10019800EC28831603130F168F160F17EC288316F7
:1001A80003130F128F160F17EC287608F400F501C9
:1001B8007508003A0319E128D3287408003A03198E
:1001C800C128013A0319C728063A0319CD28D328AC
:1001D8000F140800831603178801081489010130D9
:1001E800831603138500860188011830870083125F
:1001F800031386018801D7308316031381008B17F8
:100208000B17831203138C11831603138C15851691
:100218000C178B16EC30831203138100F401F501DF
:10022800F60124300A128A1165210A128A1108007F
:100238008C1D1F292029292978080A128A1186214C
:100248000A128A11831203138C110C1F2C292D29D1
:1002580032290C131E08FF007F08F8000B1D3529F2
:1002680036293D290B11EC3081000130FF007F0851
:10027800F9077308FF0072088A00710E8300FE0EEA
:100288007E0E090014300A128A11BF200A128A1140
:100298000A128A11EE200A128A11F40101300A1298
:1002A8008A1119200A128A110A128A117B210A124C
:1002B8008A11780883120313880058290A128A11B0
:1002C8001028F700831603138712771D6C296D29F0
:1002D80071297608940087157529740876049400A6
:1002E80087117708750483120313940008000630F9
:1002F8007902031C802981298529F90183120313B6
:100308009F140800F000700883120313930008007C
:04400E00D420FF3F7C
:00000001FF
