:020000040000FA
:060000000A128A1110280B
:10000800FE00030EF0000A08F100831203137F08B4
:10001800F2000A128A11CD290A128A111328F8014E
:10002800F901FA0183120313A001A101A201A3019E
:10003800A401A501A601A701A80183010A128A113A
:10004800CB28F6003B28831203131F179F1394280D
:10005800831203131F139F179428831203131F1768
:100068009F179428831203131F139F13942876084D
:10007800F400F5017508003A031943283628740876
:10008800013A03192728033A03192C28013A0319BE
:10009800312836281F119F111F129F12C5281F15BE
:1000A8009F111F129F12C5281F119F151F129F1203
:1000B800C5281F159F151F129F12C5281F119F11B4
:1000C8001F169F12C5281F159F111F169F12C5289E
:1000D8001F119F151F169F12C5281F159F151F1644
:1000E8009F12C5281F119F111F129F16C5281F1583
:1000F8009F111F129F16C5281F119F151F129F16AB
:10010800C5281F159F151F129F16C5281F119F115F
:100118001F169F16C5281F159F111F169F16C52845
:100128007308F400F5017508003A03199C284E2855
:100138007408013A03195328033A03195828013A55
:1001480003195D28073A03196228013A0319672839
:10015800033A03196C28013A031971280F3A031955
:100168007628013A03197B28033A03198028013AB3
:1001780003198528073A03198A28013A03198F2891
:100188004E289F101F14831603139F01080083161F
:100198000313880114300A128A119E210A128A1147
:1001A8000A128A112A220A128A110A128A11CD22E7
:1001B8000A128A110A128A119C220A128A118A309A
:1001C8000A128A11B5220A128A111430FF007F0818
:1001D800F3000B300A128A1125200A128A11F7013E
:1001E800F70A01300A128A11FC210A128A11013019
:1001F8000A128A1154220A128A11F701F70A0230E8
:100208000A128A11FC210A128A1110300A128A1164
:1002180054220A128A110A128A116A210A128A11B0
:100228002B307806031919291A292A290D3078063E
:1002380003191F2920292A292D3078060319252971
:1002480026292A2983120313A301A2010A128A115B
:1002580033210A128A11F3280A128A1110282B3026
:100268007806031D382939293D2983120313A30170
:10027800A30A0D307806031D422943294F2983120A
:1002880003132303031D49294A294F29A3010130D8
:10029800FF007F08A0072D307806031D5429552933
:1002A800592983120313A201A20A0D307806031DEF
:1002B8005E295F296929831203132203031D652917
:1002C80066296929A2010130A002080006307A02D5
:1002D800031C6F2970299D29FA01831203139F14A7
:1002E8002808031D782979298C29A801A80A09302A
:1002F800FF007F08F30001300A128A1125200A1234
:100308008A117908FF007F0883120313A5009D292D
:10031800A8010B30FF007F08F30001300A128A1190
:1003280025200A128A117908FF007F088312031317
:10033800A4000800F500B829831603130F128F12C2
:100348000F13CB29831603130F168F120F13CB2904
:10035800831603130F168F160F17CB298316031353
:100368000F128F160F17CB297508F300F4017408C4
:10037800003A0319C029B2297308003A0319A029C1
:10038800013A0319A629063A0319AC29B2290F1410
:1003980008000C1FD029D129D6290C131E08FF00EC
:1003A8007F08F9000B1DD929DA29E1290B11EC3056
:1003B80081000130FF007F08FA078C1EE429E52937
:1003C800E9291A08FF007F08F8000C1EEC29ED291E
:1003D800F22930309900831603130C127208831225
:1003E800FF0071088A00700E8300FE0E7E0E090061
:1003F80083120313A9002903031D032A042A142ABC
:1004080077087F3EFF007F08AA002A08FF007F08C0
:10041800AB002B080A128A11B5220A128A11292A5E
:1004280002302906031D192A1A2A292A7708BF3EED
:10043800FF007F08AA002A08FF007F08AB002B08EE
:100448000A128A11B5220A128A11080083120313AC
:10045800850186018701880183160317880108141E
:1004680089018316031385011830860088018030BE
:1004780087000B11831203130C130B10D73083164C
:10048800031381008B170B178B110C178B16EC308D
:10049800831203138100831603138C160C160800AD
:1004A80083120313AB00A901AA016F2A29082B079D
:1004B80084000A128A117D220A128A110A128A11EC
:1004C800E3220A128A11013083120313A9070318C1
:1004D800AA0A0030AA0729082B0784000A128A11E1
:1004E8007D220A128A11003A031D7B2A7C2A5A2A85
:1004F800080002308A000408840A82070034533452
:1005080031342034203420342034533432342034ED
:1005180020342034203453343334003456346F3488
:100528006C34743461346A34653473343A34003466
:1005380038300A128A11B5220A128A110C300A12AE
:100548008A11B5220A128A1106300A128A11B522B6
:100558000A128A1180300A128A11B5220A128A11E7
:100568000800F60076080A128A11F9220A128A117E
:1005780083120313861006144130F500EE30F400A0
:10058800F40BC42AF50BC42A0000831203130610C7
:100598000800831603131812181518138316031767
:1005A8008711831603139A011930990083120313D4
:1005B8009817181318168316031398160800F500D1
:1005C80083120313861475080A128A11F9220A1273
:1005D8008A118312031306148530F400F40BF22AEF
:1005E80083120313061086100800F30073088312A1
:0605F80003138800080057
:04400E00D420FF3F7C
:00000001FF
