:020000040000FA
:060000000A128A1110280B
:10000800FE00030EF0000A08F100831203137F08B4
:10001800F2000A128A119C2D0A128A111328F8017B
:10002800F901FA018313363084004B300A128A1121
:1000380049270A128A1183010A128A11B32A8312E4
:1000480003134408FF007F08B6003330A2000030D5
:10005800A3003608AA00AB012A08F3002B08F40015
:100068006430F5000030F6000A128A1163260A127D
:100078008A11740883120313A5007308A4000A12D6
:100088008A1132240A128A11831203132308B10039
:100098002208B0006430A2000030A3003108A50097
:1000A8003008A4000A128A1132240A128A11831213
:1000B80003132208FF007F08B8003330A200003085
:1000C800A3003608AA00AB012A08F3002B08F400A5
:1000D8006430F5000030F6000A128A1163260A120D
:1000E8008A11740883120313A5007308A4000A1266
:1000F8008A1132240A128A11831203132208AC00CF
:100108002308AD003808AE00AF012E08F3002F0811
:10011800F4009C30F500FF30F6000A128A116326BD
:100128000A128A117308831203132C07B00074088B
:100138000318740A2D07B1000A30A2000030A3008A
:100148003108A5003008A4000A128A1132240A12C4
:100158008A11831203132208FF007F08B900333085
:10016800A2000030A3003608AA00AB012A08F30059
:100178002B08F4006430F5000030F6000A128A11EA
:1001880063260A128A11740883120313A5007308E0
:10019800A4000A128A1132240A128A118312031344
:1001A8002208AC002308AD009C30FF007F08F30054
:1001B80038080A128A1134270A128A118312031383
:1001C800AE00F630FF007F08F30039080A128A11E2
:1001D80034270A128A11831203132E072C07FF00F3
:1001E8007F08BA0038080A128A1126250A128A11CD
:1001F800FF007F0883120313B80039080A128A1116
:1002080026250A128A11FF007F0883120313B900FA
:100218003A080A128A1126250A128A11FF007F0855
:1002280083120313BA000800831203134508FF0062
:100238007F08B7003330A2000030A3003708AA00B7
:10024800AB012A08F3002B08F4006430F5000030F5
:10025800F6000A128A1163260A128A117408831298
:100268000313A5007308A4000A128A1132240A1283
:100278008A11831203132308B1002208B0006430E6
:10028800A2000030A3003108A5003008A4000A121B
:100298008A1132240A128A11831203132208FF00DA
:1002A8007F08F8003330A2000030A3003708AA0006
:1002B800AB012A08F3002B08F4006430F500003085
:1002C800F6000A128A1163260A128A117408831228
:1002D8000313A5007308A4000A128A1132240A1213
:1002E8008A11831203132208AC002308AD00780892
:1002F800AE00AF012E08F3002F08F4009C30F50083
:10030800FF30F6000A128A1163260A128A1173084E
:10031800831203132C07B00074080318740A2D07FE
:10032800B1000A30A2000030A3003108A50030084F
:10033800A4000A128A1132240A128A1183120313A2
:100348002208FF007F08BB003330A2000030A30062
:100358003708AA00AB012A08F3002B08F400643020
:10036800F5000030F6000A128A1163260A128A1173
:10037800740883120313A5007308A4000A128A11D3
:1003880032240A128A11831203132208AC002308AC
:10039800AD009C30FF007F08F30078080A128A112C
:1003A80034270A128A1183120313AE00F630FF00B5
:1003B8007F08F3003B080A128A1134270A128A11AF
:1003C800831203132E072C07FF007F08BC00780850
:1003D8000A128A1126250A128A11FF007F08F800DE
:1003E800831203133B080A128A1126250A128A115E
:1003F800FF007F0883120313BB003C080A128A110E
:1004080026250A128A11FF007F0883120313BC00F5
:100418000800F600232A831203131F179F137C2A50
:10042800831203131F139F177C2A831203131F17AA
:100438009F177C2A831203131F139F137C2A7608A5
:10044800F400F5017508003A03192B2A1E2A7408CE
:10045800013A03190F2A033A0319142A013A031916
:10046800192A1E2A1F119F111F129F12AD2A1F152C
:100478009F111F129F12AD2A1F119F151F129F1245
:10048800AD2A1F159F151F129F12AD2A1F119F110C
:100498001F169F12AD2A1F159F111F169F12AD2AF6
:1004A8001F119F151F169F12AD2A1F159F151F1686
:1004B8009F12AD2A1F119F111F129F16AD2A1F15DB
:1004C8009F111F129F16AD2A1F119F151F129F16ED
:1004D800AD2A1F159F151F129F16AD2A1F119F11B8
:1004E8001F169F16AD2A1F159F111F169F16AD2A9E
:1004F8007308F400F5017508003A0319842A362AAE
:100508007408013A03193B2A033A0319402A013AAD
:100518000319452A073A03194A2A013A03194F2AA7
:10052800033A0319542A013A0319592A0F3A0319AD
:100538005E2A013A0319632A033A0319682A013A21
:1005480003196D2A073A0319722A013A0319772AFF
:10055800362A9F101F14831603139F010800831661
:100568000313880114300A128A1106260A128A1106
:100578000A128A118E260A128A110A128A1108276B
:100588000A128A110A128A11D7260A128A118A3087
:100598000A128A11F0260A128A111430FF007F0805
:1005A800F3000B300A128A110D220A128A11F70180
:1005B800F70A01300A128A1135260A128A11013007
:1005C800F6008030F7000A128A119B240A128A1159
:1005D800F701F70A02300A128A1135260A128A111F
:1005E800831203133E08FF007F08F3003F08FF0053
:1005F8007F08F4003D080A128A11E1240A128A11C0
:10060800F6000030F7000A128A119B240A128A1198
:100618000A128A11D2250A128A112B307A06031976
:10062800162B172B272B0D307A0603191C2B1D2B85
:10063800272B2D307A060319222B232B272B8312E5
:100648000313C301C2010A128A1165250A128A110D
:1006580078088312031385000A128A1143230A12A9
:100668008A110A128A1118210A128A110A128A1189
:1006780023200A128A11DB2A0A128A1110286430F0
:1006880083120313A2000030A3004008AA00AB01A4
:100698002A08A4002B08A5000A128A1132240A127B
:1006A8008A11831203132208FF007F08BD000A3055
:1006B800A2000030A3003D08AA00AB012A08F300FD
:1006C8002B08F4009C30F500FF30F6000A128A115E
:1006D80063260A128A118312031340087307A400C1
:1006E80074080318740AA5000A128A1132240A121F
:1006F8008A11831203132208FF007F08BE009C3072
:10070800FF007F08F3003D080A128A1134270A12F5
:100718008A1183120313AA00F630FF007F08F30042
:100728003E080A128A1134270A128A118312031307
:100738002A074007FF007F08BF003D080A128A11F8
:1007480026250A128A11FF007F0883120313BD00B1
:100758003E080A128A1126250A128A11FF007F080C
:1007680083120313BE003F080A128A1126250A12B3
:100778008A11FF007F0883120313BF000800790362
:10078800031DC72BC82BCC2B7808831203139900A1
:1007980002307906031DD12BD22BD62B2E30831293
:1007A8000313990003307906031DDB2BDC2BE02BA8
:1007B800831203133B08990004307906031DE52BC7
:1007C800E62BEA2B831203133C08990005307906BF
:1007D800031DEF2BF02BF42B2C30831203139900FD
:1007E80006307906031DF92BFA2BFE2B20308312D5
:1007F8000313990007307906031D032C042C082CD9
:10080800831203133808990008307906031D0D2C4C
:100818000E2C122C2E3083120313990009307906FE
:10082800031D172C182C1C2C83120313390899004C
:100838000A307906031D212C222C262C831203133F
:100848003A0899000B307906031D2B2C2C2C312CDF
:100858000D30831203139900F90108008312031362
:10086800A701A31F382C392C402CA209A309A20ADE
:100878000319A30AA701A70AA51F432C442C4D2C32
:10088800A409A509A40A0319A50A0130FF007F08D5
:10089800A706A801A901220823040319542C552CE2
:1008A8008C2CA601A60A632C01300310A20DA30DFF
:1008B800FF3E031D592C0130FF007F08A607A31F28
:1008C800662C672C582C01300310A80DA90DFF3E8B
:1008D800031D682C23082502031D742C22082402FA
:1008E800031C772C782C7F2C2208A4022308031CD5
:1008F800A503A502281401300310A30CA20CFF3E87
:10090800031D802C0130A602031D8B2C8C2C672C18
:1009180027080319902C912C962CA809A909A80A34
:100928000319A90A2908A3002808A20008008312AD
:100938000313B401B501C42C34087607B200770854
:10094800B1000318B10AB41FAA2CB1038312031310
:100958003108B3003308FF00320884000A128A11F4
:10096800B8260A128A110A128A111E270A128A1137
:10097800013083120313B4070318B50A0030B50712
:1009880034087607B2007708B1000318B10AB41F1B
:10099800CE2CB103831203133108B3003308FF00D0
:1009A800320884000A128A11B8260A128A11003AFB
:1009B800031DDF2CE02CA02C080083120313B000C9
:1009C8003008FF007F08A0007308FF007F08A1001F
:1009D8007408FF007F08A2002030FF007F08A300F2
:1009E8002030FF007F08A4007808FF007F08A500DA
:1009F8002E30FF007F08A6003B08FF007F08A700F5
:100A08003C08FF007F08A8007630FF007F08A90097
:100A18002030FF007F08AA003808FF007F08AB00DD
:100A28002E30FF007F08AC003908FF007F08AD00BA
:100A38003A08FF007F08AE007630FF007F08AF005D
:100A480020300800F5003C2D3030642D3130642D05
:100A58003230642D3330642D3430642D3530642DBC
:100A68003630642D3730642D3830642D3930642D9C
:100A78007508F300F4017408003A0319442D282D71
:100A88007308003A0319282D013A03192A2D033A4D
:100A980003192C2D013A03192E2D073A0319302D6D
:100AA800013A0319322D033A0319342D013A031977
:100AB800362D0F3A0319382D013A03193A2D282DEE
:100AC80008002B307A06031D6A2D6B2D6F2D8312BB
:100AD8000313C301C30A0D307A06031D742D752D47
:100AE800812D831203134303031D7B2D7C2D812D40
:100AF800C3010130FF007F08C0072D307A06031DAF
:100B0800862D872D8B2D83120313C201C20A0D3047
:100B18007A06031D902D912D9B2D831203134203FA
:100B2800031D972D982D9B2DC2010130C00208008E
:100B38000C1F9F2DA02DA52D0C131E08FF007F084C
:100B4800C9000B1DA82DA92DB02D0B11EC3081006B
:100B58000130FF007F08CA078C1EB32DB42DB82DB5
:100B68001A08FF007F08FA000C1EBB2DBC2DC82DEB
:100B78000130FF007F08F9070A128A11C3230A12FD
:100B88008A11831603130C1272088312FF0071086E
:100B98008A00700E8300FE0E7E0E09000630831256
:100BA80003134A02031CD92DDA2D052ECA019F14FE
:100BB8004808031DE02DE12DF42DC801C80A0930AD
:100BC800FF007F08F30001300A128A110D220A1271
:100BD8008A11831203134908FF007F08C500052EF8
:100BE800C8010B30FF007F08F30001300A128A1198
:100BF8000D220A128A11831203134908FF007F0885
:100C0800C4000800F500202E831603130F128F125C
:100C18000F13332E831603130F168F120F13332E51
:100C2800831603130F168F160F17332E831603130D
:100C38000F128F160F17332E7508F300F40174087E
:100C4800003A0319282E1A2E7308003A0319082EA1
:100C5800013A03190E2E063A0319142E1A2E0F14F0
:100C6800080083120313A0002003031D3C2E3D2E11
:100C78004D2E77087F3EFF007F08A1002108FF0066
:100C88007F08A20022080A128A11F0260A128A1185
:100C9800622E02302006031D522E532E622E770834
:100CA800BF3EFF007F08A1002108FF007F08A200C7
:100CB80022080A128A11F0260A128A1108008312E1
:100CC8000313A001A101731C6A2E6B2E732E7508E5
:100CD80083120313A0070318A10A7608A10701309D
:100CE8000310F50DF60DFF3E031D742E01300310A1
:100CF800F40CF30CFF3E031D7B2E73087404031DD4
:100D0800862E872E672E831203132108F4002008ED
:100D1800F300080083120313850186018701880107
:100D280083160317880108148901831603138501A4
:100D3800183086008801803087000B118312031356
:100D48000C130B10D7308316031381008B170B1766
:100D58008B110C178B16EC3083120313810083164A
:100D680003138C160C160800FF1BC22E83137F1862
:100D780083170008840A0319FF0A080006308A004E
:100D88000408840A82070034533431342034203470
:100D98002034203453343234203420342034203466
:100DA80053343334003438300A128A11F0260A12C8
:100DB8008A110C300A128A11F0260A128A1106309A
:100DC8000A128A11F0260A128A1180300A128A1130
:100DD800F0260A128A110800F60076080A128A110B
:100DE80051270A128A118312031386100614413000
:100DF800F500EE30F400F40BFF2EF50BFF2E00008B
:100E0800831203130610080083160313181218150B
:100E18001813831603178711831603139A011930C1
:100E280099008312031398171813181683160313BF
:100E380098160800F50083120313861475080A1221
:100E48008A1151270A128A11831203130614853056
:100E5800F400F40B2D2F83120313061086100800DC
:100E6800F500F401751C392F3A2F3E2F7308FF0047
:100E78007F08F4070310F30D0310F50C7508031D24
:100E8800462F472F362F7408080064008001840A13
:100E980004060319003404064A2FF300730883126A
:060EA8000313880008009E
:04400E00D420FF3F7C
:00000001FF
