:020000040000FA
:060000000A128A1110280B
:10000800FE00030EF1000A08F200831203137F08B2
:10001800F3000A128A1158290A128A111328F701C3
:10002800F801F90183010A128A11BA28831203130D
:10003800A0002A281F179F1383281F139F178328A0
:100048001F179F1783281F139F1383282008F50065
:10005800F6017608003A0319322827287508013A6C
:1000680003191E28033A03192128013A03192428E1
:1000780027281F119F111F129F12B4281F159F11A7
:100088001F129F12B4281F119F151F129F12B42808
:100098001F159F151F129F12B4281F119F111F169D
:1000A8009F12B4281F159F111F169F12B4281F11E5
:1000B8009F151F169F12B4281F159F151F169F12F4
:1000C800B4281F119F111F129F16B4281F159F11C6
:1000D8001F129F16B4281F119F151F129F16B428B0
:1000E8001F159F151F129F16B4281F119F111F1649
:1000F8009F16B4281F159F111F169F16B428740841
:10010800F500F6017608003A03198B283D28750892
:10011800013A03194228033A03194728013A0319F7
:100128004C28073A03195128013A03195628033A6B
:1001380003195B28013A031960280F3A0319652847
:10014800013A03196A28033A03196F28013A031977
:100158007428073A03197928013A03197E283D289B
:100168009F101F14831603139F01080014300A12EE
:100178008A11FB200A128A110A128A112A210A12EC
:100188008A11F40101300A128A111A200A128A11FE
:100198000A128A11A0210A128A11780883120313FD
:1001A80086007808FF007F08F7006430770203189C
:1001B800DE28DF28E1280130880064307702031C3C
:1001C800E628E728EF28733077020318EC28ED2893
:1001D800EF280230880073307702031CF428F528D2
:1001E800CC2804308800CC280A128A111028F6007E
:1001F8001529831603130F128F120F13282983163C
:1002080003130F168F120F132829831603130F16C3
:100218008F160F172829831603130F128F160F171F
:1002280028297608F400F5017508003A03191D29F4
:100238000F297408003A0319FD28013A0319032904
:10024800063A031909290F290F1408008316031702
:10025800880108148901013083160313850086017B
:100268008801083087008312031386018801D7307C
:100278008316031381008B170B17831203138C113A
:10028800831603138C1585160C178B16EC30831206
:1002980003138100F401F501F60124300A128A11D2
:1002A80082210A128A1108008C1D5B295C296529A4
:1002B80078080A128A11AB210A128A1183120313D1
:1002C8008C110C1F682969296E290C131E08FF0060
:1002D8007F08F8000B1D7129722979290B11EC3060
:1002E80081000130FF007F08F9077308FF007208DA
:1002F8008A00710E8300FE0E7E0E0900831203131E
:10030800A00083160313871283120313201D8D295F
:100318008E299429760883160313940087159A2941
:100328007408760483160313940087118312031349
:1003380020087504940008000B307902031CA529D5
:10034800A629AA29F901831203139F140800F000B3
:0A03580070088312031393000800DD
:04400E00D420FF3F7C
:00000001FF
