:020000040000FA
:060000000A128A11122809
:10000800FE00030EF4000408F5000A08F600831247
:1000180003137F08F7000A128A115C290A128A1151
:1000280015280A128A1178220A128A11A8000A12BF
:100038008A1179220A128A11A900A001A101A2013C
:10004800A301F801F901FA01FB01FC01FD0183019B
:100058000A128A113C2A83120313A7003F281F178C
:100068009F1398281F139F1798281F179F179828C2
:100078001F139F1398282708A500A6012608003AF1
:10008800031947283C282508013A03193328033A5D
:1000980003193628013A031939283C281F119F11E2
:1000A8001F129F12C9281F159F111F129F12C928BE
:1000B8001F119F151F129F12C9281F159F151F1268
:1000C8009F12C9281F119F111F169F12C9281F159B
:1000D8009F111F169F12C9281F119F151F169F12C7
:1000E800C9281F159F151F169F12C9281F119F1178
:1000F8001F129F16C9281F159F111F129F16C92866
:100108001F119F151F129F16C9281F159F151F1213
:100118009F16C9281F119F111F169F16C9281F1542
:100128009F111F169F16C9282408A500A601260896
:10013800003A0319A02852282508013A031957281C
:10014800033A03195C28013A03196128073A03198D
:100158006628013A03196B28033A03197028013AF3
:10016800031975280F3A03197A28013A03197F28C9
:10017800033A03198428013A03198928073A03190D
:100188008E28013A0319932852289F101F148316AA
:1001980003139F010800F20021293F308312031343
:1001A80087005B2906308312031387005B295B30C5
:1001B8008312031387005B294F30831203138700D0
:1001C8005B2966308312031387005B296D30831225
:1001D800031387005B297D308312031387005B2993
:1001E80007308312031387005B297F3083120313C0
:1001F80087005B2967308312031387005B297730F8
:100208008312031387005B297C3083120313870052
:100218005B2939308312031387005B295E30831210
:10022800031387005B2979308312031387005B2946
:1002380071308312031387005B297208F000F10103
:100248007108003A031929295B297008003A031933
:10025800D128013A0319D628033A0319DB28013AB1
:100268000319E028073A0319E528013A0319EA288F
:10027800033A0319EF28013A0319F4280F3A03192E
:10028800F928013A0319FE28033A03190329013A08
:1002980003190829073A03190D29013A03191229E4
:1002A800033A03191729013A03191C295B29080085
:1002B8000B1D5F29602992290B11EC308100013058
:1002C800FF007F08FB07891009117D08031D6D29B0
:1002D8006E298529FD01FD0A89147C08F300043084
:1002E8000310F30CFF3E031D742973080F39FF0038
:1002F8007F08A10021080A128A11CF200A128A1148
:100308009229FD0109157C080F39FF007F08A0001C
:1003180020080A128A11CF200A128A1183120313A5
:100328000C1F972998299D290C131E08FF007F0888
:10033800FC000B1CA029A129D4290B100030061899
:100348000130F9007903031DAA29AB29AD29FA0167
:10035800FA0A7A03031DB129B229BC297908031DB9
:10036800B629B729BC290130FF007F088807FA01A0
:10037800003086180130F8007803031DC429C52908
:10038800C729A201A20A2203031DCB29CC29D429FB
:100398007808031DD029D129D42901308802A20167
:1003A8007708FF0076088A0075088400740E8300B9
:1003B800FE0E7E0E090083120313A600FB29831686
:1003C80003130F128F120F130E2A831603130F161F
:1003D8008F120F130E2A831603130F168F160F177B
:1003E8000E2A831603130F128F160F170E2A2608CC
:1003F800A400A5012508003A0319032AF5292408B1
:10040800003A0319E329013A0319E929063A0319BD
:10041800EF29F5290F1408008312031385018601BB
:100428008701880189018316031788010814890147
:100438000130831603138500FF3086008701880189
:1004480089010B11831203130C130B1057308316F9
:10045800031381008B170B178B151514951416149D
:1004680096140C178B16EC308312031381000800C6
:1004780014300A128A11DF210A128A110A128A110B
:1004880010220A128A111430FF007F088312031306
:10049800A40001300A128A112F200A128A110A12A6
:1004A8008A116D220A128A110A128A1161220A120D
:1004B8008A11532A0A128A1112287C0883120313FC
:1004C80008020318682A692A6B2A09146C2A091079
:1004D800080006307B02031C722A732A772AFB0164
:0C04E800831203139F1408001E3401341B
:04400E00D420FF3F7C
:00000001FF
