:020000040000FA
:060000000A128A1110280B
:10000800FE00030EF0000A08F100831203137F08B4
:10001800F2000A128A11F8280A128A1113280A1201
:100028008A1180210A128A11F9000A128A11812183
:100038000A128A11FA00F501F601F701F8018301A5
:100048000A128A115329F40035281F179F13902884
:100058001F139F1790281F179F1790281F139F1370
:100068009028740883120313A000A1012108003A04
:1000780003193F2832282008013A03192928033A8E
:1000880003192C28013A03192F2832281F119F1110
:100098001F129F12C1281F159F111F129F12C128DE
:1000A8001F119F151F129F12C1281F159F151F1280
:1000B8009F12C1281F119F111F169F12C1281F15BB
:1000C8009F111F169F12C1281F119F151F169F12DF
:1000D800C1281F159F151F169F12C1281F119F1198
:1000E8001F129F16C1281F159F111F129F16C12886
:1000F8001F119F151F129F16C1281F159F151F122C
:100108009F16C1281F119F111F169F16C1281F1562
:100118009F111F169F16C1287308A000A10121086E
:10012800003A031998284A282008013A03194F2849
:10013800033A03195428013A03195928073A0319AD
:100148005E28013A03196328033A03196828013A1B
:1001580003196D280F3A03197228013A03197728F1
:10016800033A03197C28013A03198128073A03192D
:100178008628013A03198B284A289F101F148316D2
:1001880003139F01080083120313A000E3288316BA
:1001980003130F128F120F13F628831603130F166B
:1001A8008F120F13F628831603130F168F160F17C7
:1001B800F628831603130F128F160F17F628200838
:1001C800F300F4017408003A0319EB28DD287308DA
:1001D800003A0319CB28013A0319D128063A031922
:1001E800D728DD280F1408000B1DFB28FC28102930
:1001F8000B11EC3081000130FF007F08F50777080C
:10020800031D072908290D29F701F70A891409117F
:100218001029F701891009150C1F13291429192908
:100228000C131E08FF007F08F6000B1C1C291D2953
:100238001E290B107208FF0071088A00700E8300D7
:10024800FE0E7E0E090083120313850186018701C5
:100258008801890183160317880108148901013070
:10026800831603138500FF30860087018801890102
:100278000B11831203130C130B105730831603133F
:1002880081008B170B178B151514951416149614DB
:100298000C178B16EC3083120313810008001430FE
:1002A8000A128A11C7200A128A110A128A112721F2
:1002B8000A128A111430FF007F08F30001300A1275
:1002C8008A1127200A128A110A128A1175210A1224
:1002D8008A11760883120313880068290A128A1182
:1002E800102806307502031C7A297B297F29F5011D
:0C02F800831203139F1408001E3401340D
:04400E00D420FF3F7C
:00000001FF
