:020000040000FA
:060000000A128A11122809
:10000800FE00030EF8000408F9000A08FA0083123B
:1000180003137F08FB000A128A11602A0A128A1148
:100028001528F001F101F201F301F401F501831340
:10003800393084004A300A128A1132240A128A118D
:1000480083010A128A11A52A75080F390A128A1122
:10005800E9220A128A11FF007F0883120313C700DE
:100068007508A30004300310A30CFF3E031D3728B6
:1000780023080F390A128A11E9220A128A11FF008D
:100088007F0883120313C80074080F390A128A11F3
:10009800E9220A128A11FF007F0883120313C500A0
:1000A8007408A30004300310A30CFF3E031D572857
:1000B80023080F390A128A11E9220A128A11FF004D
:1000C8007F0883120313C60073080F390A128A11B6
:1000D800E9220A128A11FF007F0883120313C30062
:1000E8007308A30004300310A30CFF3E031D7728F8
:1000F800230803390A128A11E9220A128A11FF0019
:100108007F0883120313C40072080F390A128A1178
:10011800E9220A128A11FF007F0883120313C10023
:100128007208A30004300310A30CFF3E031D972898
:1001380023080F390A128A11E9220A128A11FF00CC
:100148007F0883120313C20071080F390A128A113B
:10015800E9220A128A11FF007F0883120313BF00E5
:100168007108A30004300310A30CFF3E031DB72839
:1001780023080F390A128A11E9220A128A11FF008C
:100188007F0883120313C0003E080F390A128A1130
:10019800E9220A128A11FF007F0883120313BC00A8
:1001A8003E08A30004300310A30CFF3E031DD7280C
:1001B80023080F390A128A11E9220A128A11FF004C
:1001C8007F0883120313BD0008000A128A1129242C
:1001D8000A128A11D03083120313A0000030A10044
:1001E8000A128A1116240A128A1100308312031384
:1001F800A000A1000A128A1116240A128A110A12F2
:100208008A1129240A128A11D13083120313A000FB
:100218000030A1000A128A1116240A128A1101302C
:1002280083120313A0000030A1000A128A1164236C
:100238000A128A11831203132008FF007F08F500B1
:100248000130A0000030A1000A128A1164230A12AA
:100258008A11831203132008FF007F08F40001307D
:10026800A0000030A1000A128A1164230A128A1120
:10027800831203132008FF007F08F3000130A00059
:100288000030A1000A128A1164230A128A1183120B
:1002980003132008FF007F08BB000130A0000030D6
:1002A800A1000A128A1164230A128A118312031305
:1002B8002008FF007F08F2000130A0000030A100F4
:1002C8000A128A1164230A128A118312031320085E
:1002D800FF007F08F1000030A000A1000A128A1177
:1002E80064230A128A11831203132008FF007F086F
:1002F800BE000A128A1120240A128A110800B529A0
:1003080042089900F72941089900F7292F309900E8
:10031800F72940089900F7293F089900F7293D086F
:100328009900F7293C089900F72920309900F72906
:1003380044089900F72943089900F7293A309900A9
:10034800F72946089900F72945089900F729480828
:100358009900F72947089900F7290A309900B90147
:10036800F729831203133908F600F7017708003AD2
:100378000319BF29F7297608013A03198429033A92
:1003880003198729013A03198A29073A03198D297C
:10039800013A03199029033A03198A29013A0319E2
:1003A80093290F3A03199629013A03199929033A0F
:1003B80003199C29013A03199F29073A0319A2290D
:1003C800013A0319A529033A0319A829013A03197F
:1003D800A2291F3A0319AB29013A0319AE29033A96
:1003E8000319B129F7290800003083120313AC0060
:1003F8000030AB000030AA000030A9002308220416
:10040800210420040319092A0A2A572AAD01AD0A32
:100418001A2A0130A8000310A00DA10DA20DA30DEA
:10042800A80B0F2A0130FF007F08AD07A31F1D2A64
:100438001E2A0D2A0130A8000310A90DAA0DAB0D24
:10044800AC0DA80B202A23082702031D352A2208F1
:100458002602031D352A21082502031D352A2008F6
:100468002402031C382A392A482A2008A402210811
:10047800031C210FA5022208031C220FA602230831
:10048800031C230FA702291401300310A30CA20C8C
:10049800A10CA00CFF3E031D492A0130AD02031D2B
:1004A800562A572A1E2A2C08A3002B08A2002A081D
:1004B800A1002908A00008007003031D642A652A0A
:1004C800772A0C1E682A692A772A831603130C12C6
:1004D8000130FF007F0883120313B9070A128A113B
:1004E80083210A128A110B1D7A2A7B2A902A0B1162
:1004F80064308312031381000130FF007F08C907AD
:1005080002304906031D892A8A2A902A8316031372
:100518000C1683120313C901831203138C1E952A28
:10052800962A9A2A1A08FF007F08F0007B08FF0025
:100538007A088A0079088400780E8300FE0E7E0E01
:10054800090014300A128A1196230A128A110A1213
:100558008A11C7230A128A110A128A11F3230A126E
:100568008A110A128A11E9200A128A1102308312AA
:100578000313B8000430B700B930B600B60BC22A6E
:10058800B70BC22AB80BC22AC92A0A128A11282014
:100598000A128A117003031DD22AD32ADA2A0130DB
:1005A800831203138600831603130C167008031DA9
:1005B800DE2ADF2AB52A8312031386018316031362
:1005C8000C12B52A0A128A11122883120313A200E8
:1005D800012B3030292B3130292B3230292B333065
:1005E800292B3430292B3530292B3630292B37301D
:1005F800292B3830292B3930292B2208A000A101BA
:100608002108003A0319092BED2A2008003A03199A
:10061800ED2A013A0319EF2A033A0319F12A013A9C
:100628000319F32A073A0319F52A013A0319F72A95
:10063800033A0319F92A013A0319FB2A0F3A031955
:10064800FD2A013A0319FF2AED2A080028308312EF
:1006580003139400831603139101831203132E08C6
:10066800B2002F08B3003008B4003108B5000230DA
:100678000310B20DB30DB40DB50DFF3E031D3C2B99
:100688003508A3003408A2003308A1003208A000EE
:100698000030A7003D30A6000930A5000030A400B6
:1006A8000A128A11F8210A128A11831203132008E8
:1006B800FF3E83160313930094018715071608005D
:1006C8000A128A1109240A128A1183160313911532
:1006D8000A128A1109240A128A11831203131308B1
:1006E800A200A3012208A4002308A5000A128A1167
:1006F80009240A128A118312031320032104031DFB
:10070800862B872B8B2B8316031391128E2B831624
:10071800031391161116831203132508A100240848
:10072800A000080083120313A200B22B8316031340
:100738000F128F120F13C52B831603130F168F1268
:100748000F13C52B831603130F168F160F17C52B00
:10075800831603130F128F160F17C52B2208A0003C
:10076800A1012108003A0319BA2BAC2B2008003A42
:1007780003199A2B013A0319A02B063A0319A62B41
:10078800AC2B0F140800831203138501860183160E
:1007980003138601870183160317880189010B114A
:1007A800D7308316031381008B170B178B16FA307B
:1007B800831203138100831603130C168C16003062
:1007C80083120313B1000130B0008630AF00A030AF
:1007D800AE000A128A112A230A128A110800831607
:1007E8000313181218151813831603178711831685
:1007F80003139A01193099008312031398171813D9
:100808001816831603139816080083160313141971
:100818000E2C0F2C092C11081F39031D142C152C14
:10082800092C08000A128A1109240A128A11831253
:1008380003132008930008000A128A1109240A12D7
:100848008A1183160313111508000A128A11092444
:100858000A128A1183160313111408006400800118
:0C086800840A0406031900340406332C33
:04400E00D420FF3F7C
:00000001FF
