:020000040000FA
:060000000A128A11122809
:10000800FE00030EF8000408F9000A08FA0083123B
:1000180003137F08FB000A128A11CB2A0A128A11DD
:100028001528F001F101F201F301F401F501831340
:10003800393084004A300A128A1159240A128A1166
:1000480083010A128A11F82975080F390A128A11D0
:1000580010230A128A11FF007F0883120313C700B6
:100068007508A30004300310A30CFF3E031D3728B6
:1000780023080F390A128A1110230A128A11FF0065
:100088007F0883120313C80074080F390A128A11F3
:1000980010230A128A11FF007F0883120313C50078
:1000A8007408A30004300310A30CFF3E031D572857
:1000B80023080F390A128A1110230A128A11FF0025
:1000C8007F0883120313C60073080F390A128A11B6
:1000D80010230A128A11FF007F0883120313C3003A
:1000E8007308A30004300310A30CFF3E031D7728F8
:1000F800230803390A128A1110230A128A11FF00F1
:100108007F0883120313C40072080F390A128A1178
:1001180010230A128A11FF007F0883120313C100FB
:100128007208A30004300310A30CFF3E031D972898
:1001380023080F390A128A1110230A128A11FF00A4
:100148007F0883120313C20071080F390A128A113B
:1001580010230A128A11FF007F0883120313BF00BD
:100168007108A30004300310A30CFF3E031DB72839
:1001780023080F390A128A1110230A128A11FF0064
:100188007F0883120313C0003E080F390A128A1130
:1001980010230A128A11FF007F0883120313BC0080
:1001A8003E08A30004300310A30CFF3E031DD7280C
:1001B80023080F390A128A1110230A128A11FF0024
:1001C8007F0883120313BD0008000A128A11502405
:1001D8000A128A11D03083120313A0000030A10044
:1001E8000A128A113D240A128A110030831203135D
:1001F800A000A1000A128A113D240A128A110A12CB
:100208008A1150240A128A11D13083120313A000D4
:100218000030A1000A128A113D240A128A11013005
:1002280083120313A0000030A1000A128A118B2345
:100238000A128A11831203132008FF007F08F500B1
:100248000130A0000030A1000A128A118B230A1283
:100258008A11831203132008FF007F08F40001307D
:10026800A0000030A1000A128A118B230A128A11F9
:10027800831203132008FF007F08F3000130A00059
:100288000030A1000A128A118B230A128A118312E4
:1002980003132008FF007F08BB000130A0000030D6
:1002A800A1000A128A118B230A128A1183120313DE
:1002B8002008FF007F08F2000130A0000030A100F4
:1002C8000A128A118B230A128A1183120313200837
:1002D800FF007F08F1000030A000A1000A128A1177
:1002E8008B230A128A11831203132008FF007F0848
:1002F800BE000A128A1147240A128A110800B52979
:1003080042089900F72941089900F7292F309900E8
:10031800F72940089900F7293F089900F7293D086F
:100328009900F7293C089900F72920309900F72906
:1003380044089900F72943089900F7293A309900A9
:10034800F72946089900F72945089900F729480828
:100358009900F72947089900F7290A309900B90147
:10036800F729831203133908F600F7017708003AD2
:100378000319BF29F7297608013A03198429033A92
:1003880003198729013A03198A29073A03198D297C
:10039800013A03199029033A03198A29013A0319E2
:1003A80093290F3A03199629013A03199929033A0F
:1003B80003199C29013A03199F29073A0319A2290D
:1003C800013A0319A529033A0319A829013A03197F
:1003D800A2291F3A0319AB29013A0319AE29033A96
:1003E8000319B129F729080014300A128A11BD230C
:1003F8000A128A110A128A11EE230A128A110A12A3
:100408008A111A240A128A110A128A11E9200A1278
:100418008A11023083120313B8000430B700B930D0
:10042800B600B60B152AB70B152AB80B152A1C2AC5
:100438000A128A1128200A128A117003031D252A1C
:10044800262A2C2A831203138617831603130C16E5
:100458007008031D302A312A372A831203138613A2
:10046800831603130C1202307006031D3C2A3D2A22
:10047800412A831203130610861003307006031DE9
:10048800462A472A4B2A831203130614861004307F
:100498007006031D502A512A552A83120313061089
:1004A800861405307006031D5A2A5B2A082A83120F
:1004B800031306148614082A0A128A111228003017
:1004C80083120313AC000030AB000030AA000030E8
:1004D800A90023082204210420040319742A752A78
:1004E800C22AAD01AD0A852A0130A8000310A00D6B
:1004F800A10DA20DA30DA80B7A2A0130FF007F08D9
:10050800AD07A31F882A892A782A0130A80003107A
:10051800A90DAA0DAB0DAC0DA80B8B2A2308270239
:10052800031DA02A22082602031DA02A210825024D
:10053800031DA02A20082402031CA32AA42AB32AE4
:100548002008A4022108031C210FA5022208031C6D
:10055800220FA6022308031C230FA7022914013027
:100568000310A30CA20CA10CA00CFF3E031DB42A7F
:100578000130AD02031DC12AC22A892A2C08A30012
:100588002B08A2002A08A1002908A000080070036F
:10059800031DCF2AD02AE22A0C1ED32AD42AE22A03
:1005A800831603130C120130FF007F088312031314
:1005B800B9070A128A1183210A128A110B1DE52A2A
:1005C800E62AFB2A0B1164308312031381000130E1
:1005D800FF007F08C90702304906031DF42AF52ADF
:1005E800FB2A831603130C1683120313C901831203
:1005F80003138C1E002B012B052B1A08FF007F0804
:10060800F0007B08FF007A088A0079088400780ED9
:100618008300FE0E7E0E090083120313A200282B0E
:100628003030502B3130502B3230502B3330502B50
:100638003430502B3530502B3630502B3730502B30
:100648003830502B3930502B2208A000A101210846
:10065800003A0319302B142B2008003A0319142BE5
:10066800013A0319162B033A0319182B013A0319F7
:100678001A2B073A03191C2B013A03191E2B033AAC
:100688000319202B013A0319222B0F3A0319242BA3
:10069800013A0319262B142B080028308312031360
:1006A8009400831603139101831203132E08B200DA
:1006B8002F08B3003008B4003108B5000230031029
:1006C800B20DB30DB40DB50DFF3E031D632B3508F8
:1006D800A3003408A2003308A1003208A0000030AB
:1006E800A7003D30A6000930A5000030A4000A127A
:1006F8008A1163220A128A11831203132008FF3E0B
:1007080083160313930094018715071608000A122D
:100718008A1130240A128A118316031391150A12BA
:100728008A1130240A128A11831203131308A200B3
:10073800A3012208A4002308A5000A128A11302464
:100748000A128A118312031320032104031DAD2BFF
:10075800AE2BB22B831603139112B52B83160313FA
:1007680091161116831203132508A1002408A0006E
:10077800080083120313A200D92B831603130F1248
:100788008F120F13EC2B831603130F168F120F13F0
:10079800EC2B831603130F168F160F17EC2B8316EB
:1007A80003130F128F160F17EC2B2208A000A101BC
:1007B8002108003A0319E12BD32B2008003A03192A
:1007C800C12B013A0319C72B063A0319CD2BD32B9A
:1007D8000F1408008312031385018601831603137F
:1007E8008601870183160317880189010B11D73009
:1007F8008316031381008B170B178B16FA3083129D
:1008080003138100831603130C168C160030831211
:100818000313B1000130B0008630AF00A030AE0045
:100828000A128A1151230A128A1108008316031327
:100838001812181518138316031787118316031334
:100848009A01193099008312031398171813181670
:100858008316031398160800831603131419352CEE
:10086800362C302C11081F39031D3B2C3C2C302C06
:1008780008000A128A1130240A128A1183120313FB
:100888002008930008000A128A1130240A128A11DB
:1008980083160313111508000A128A1130240A124C
:1008A8008A11831603131114080064008001840A56
:0A08B80004060319003404065A2C4C
:04400E00D420FF3F7C
:00000001FF
