:020000040000FA
:060000000A128A11122809
:10000800FE00030EF8000408F9000A08FA0083123B
:1000180003137F08FB000A128A111E2B0A128A1189
:100028001528F001F101F201F301F401F501831241
:100038000313B901BA01BB01BC01BD01BE01BF0177
:10004800C001C101C201C301C401C501C601C70184
:1000580083010A128A11562B0A128A114F240A1296
:100068008A11D03083120313A0000030A1000A12B5
:100078008A113C240A128A11003083120313A0004B
:10008800A1000A128A113C240A128A110A128A1142
:100098004F240A128A11D13083120313A0000030B2
:1000A800A1000A128A113C240A128A110130831213
:1000B8000313A0000030A1000A128A118C230A122F
:1000C8008A11831203132008FF007F08F50001300E
:1000D800A0000030A1000A128A118C230A128A118A
:1000E800831203132008FF007F08F4000130A000EA
:1000F8000030A1000A128A118C230A128A11831275
:1001080003132008FF007F08F3000130A00000302F
:10011800A1000A128A118C230A128A11831203136E
:100128002008FF007F08BA000130A0000030A100BD
:100138000A128A118C230A128A11831203132008C7
:10014800FF007F08F2000130A0000030A1000A1271
:100158008A118C230A128A11831203132008FF00C4
:100168007F08F1000030A000A1000A128A118C2338
:100178000A128A11831203132008FF007F08F00077
:100188000A128A1146240A128A11080075080F39C2
:100198000A128A11A3220A128A11FF007F08831209
:1001A8000313C5007508F0390A128A11A3220A122E
:1001B8008A11FF007F0883120313C60074080F39E1
:1001C8000A128A11A3220A128A11FF007F088312D9
:1001D8000313C3007408F0390A128A11A3220A1201
:1001E8008A11FF007F0883120313C40073080F39B4
:1001F8000A128A11A3220A128A11FF007F088312A9
:100208000313C1007308F0390A128A11A3220A12D3
:100218008A11FF007F0883120313C20072080F3986
:100228000A128A11A3220A128A11FF007F08831278
:100238000313BF007208F0390A128A11A3220A12A6
:100248008A11FF007F0883120313C00071080F3959
:100258000A128A11A3220A128A11FF007F08831248
:100268000313BD007108F0390A128A11A3220A1279
:100278008A11FF007F0883120313BE0070080F392C
:100288000A128A11A3220A128A11FF007F08831218
:100298000313BB007008F0390A128A11A3220A124C
:1002A8008A11FF007F0883120313BC0008008D2900
:1002B80040089900CF293F089900CF292F3099008D
:1002C800CF293E089900CF293D089900CF293C083D
:1002D8009900CF293B089900CF2920309900CF29D0
:1002E80042089900CF2941089900CF293A3099004E
:1002F800CF2944089900CF2943089900CF294608F7
:100308009900CF2945089900CF290A309900B901E9
:10031800CF29831203133908F600F7017708003A4A
:1003280003199729CF297608013A03195C29033A5A
:1003380003195F29013A03196229073A0319652944
:10034800013A03196829033A03196229013A031982
:100358006B290F3A03196E29013A03197129033AD7
:1003680003197429013A03197729073A03197A29D5
:10037800013A03197D29033A03198029013A03191F
:100388007A291F3A03198329013A03198629033A5E
:1003980003198929CF2908000A128A114F240A1241
:1003A8008A11D03083120313A0000030A1000A1272
:1003B8008A113C240A128A11003083120313A00008
:1003C800A1000A128A113C240A128A1100308312F1
:1003D8000313A000A1000A128A113C240A128A11F0
:1003E800003083120313A000A1000A128A113C24D2
:1003F8000A128A11013083120313A0000030A100F1
:100408000A128A113C240A128A110130831203133A
:10041800A0000030A1000A128A113C240A128A1195
:10042800013083120313A0000030A1000A128A11C0
:100438003C240A128A11023083120313A0000030F0
:10044800A1000A128A113C240A128A11033083126D
:100458000313A0000030A1000A128A113C240A12DA
:100468008A110A128A1146240A128A1108000030D9
:1004780083120313AC000030AB000030AA00003038
:10048800A900230822042104200403194C2A4D2A18
:100498009A2AAD01AD0A5D2A0130A8000310A00D0B
:1004A800A10DA20DA30DA80B522A0130FF007F0851
:1004B800AD07A31F602A612A502A0130A800031043
:1004C800A90DAA0DAB0DAC0DA80B632A23082702B2
:1004D800031D782A22082602031D782A21082502EE
:1004E800031D782A20082402031C7B2A7C2A8B2AD5
:1004F8002008A4022108031C210FA5022208031CBE
:10050800220FA6022308031C230FA7022914013077
:100518000310A30CA20CA10CA00CFF3E031D8C2AF7
:100528000130AD02031D992A9A2A612A2C08A300DA
:100538002B08A2002A08A1002908A000080083129D
:100548000313A200BB2A3030E32A3130E32A3230C9
:10055800E32A3330E32A3430E32A3530E32A3630CD
:10056800E32A3730E32A3830E32A3930E32A2208ED
:10057800A000A1012108003A0319C32AA72A2008CC
:10058800003A0319A72A013A0319A92A033A0319B9
:10059800AB2A013A0319AD2A073A0319AF2A013ADF
:1005A8000319B12A033A0319B32A013A0319B52AE0
:1005B8000F3A0319B72A013A0319B92AA72A0800DA
:1005C80028308312031394008316031391018312B6
:1005D80003132E08B2002F08B3003008B400310806
:1005E800B50002300310B20DB30DB40DB50DFF3ECA
:1005F800031DF62A3508A3003408A2003308A10019
:100608003208A0000030A7003D30A6000930A50040
:100618000030A4000A128A113B220A128A1183129E
:1006280003132008FF3E83160313930094018715D4
:10063800071608000C1E212B222B302B83160313C0
:100648000C120130FF007F0883120313B9070A1246
:100658008A115B210A128A110B1D332B342B492B6B
:100668000B1164308312031381000130FF007F08EF
:10067800C70702304706031D422B432B492B83161D
:1006880003130C1683120313C7017B088312031389
:10069800FF007A088A0079088400780E8300FE0E2D
:1006A8007E0E090014300A128A11BE230A128A111A
:1006B8000A128A11EF230A128A110A128A111924BE
:1006C8000A128A110A128A11D0210A128A110130DB
:1006D8008312031386000A128A1130200A128A1123
:1006E800023083120313B8000430B700B930B600E3
:1006F800B60B7C2BB70B7C2BB80B7C2B832B0A12ED
:100708008A11CA200A128A116B2B0A128A1112281E
:100718000A128A112F240A128A11831603139115BB
:100728000A128A112F240A128A118312031313083A
:10073800A200A3012208A4002308A5000A128A1116
:100748002F240A128A118312031320032104031D84
:10075800AE2BAF2BB32B831603139112B62B831634
:10076800031391161116831203132508A1002408F8
:10077800A000080083120313A200DA2B83160313C8
:100788000F128F120F13ED2B831603130F168F12F0
:100798000F13ED2B831603130F168F160F17ED2B60
:1007A800831603130F128F160F17ED2B2208A000C4
:1007B800A1012108003A0319E22BD42B2008003AA2
:1007C8000319C22B013A0319C82B063A0319CE2B79
:1007D800D42B0F1408008312031385018316031307
:1007E8008601870183160317880189010B11D73009
:1007F8008316031381008B170B178B16FA3083129D
:1008080003138100831603130C160030831203139D
:10081800B1000130B0008630AF00A030AE000A123F
:100828008A11E4220A128A11080083160313181287
:1008380018151813831603178711831603139A01C3
:100848001930990083120313981718131816831672
:10085800031398160800831603131419342C352C27
:100868002F2C11081F39031D3A2C3B2C2F2C080064
:100878000A128A112F240A128A11831203132008DC
:10088800930008000A128A112F240A128A1183166B
:100898000313111508000A128A112F240A128A114B
:0808A80083160313111408006C
:04400E00D420FF3F7C
:00000001FF
