:020000040000FA
:060000000A128A11122809
:10000800FE00030EF8000408F9000A08FA0083123B
:1000180003137F08FB000A128A11A12A0A128A1107
:100028001528F001F101F201F301F401F501831340
:10003800393084004A300A128A1121240A128A119E
:1000480083010A128A111B2B75080F390A128A11AB
:1000580060220A128A11FF007F0883120313C70067
:100068007508A30004300310A30CFF3E031D3728B6
:1000780023080F390A128A1160220A128A11FF0016
:100088007F0883120313C80074080F390A128A11F3
:1000980060220A128A11FF007F0883120313C50029
:1000A8007408A30004300310A30CFF3E031D572857
:1000B80023080F390A128A1160220A128A11FF00D6
:1000C8007F0883120313C60073080F390A128A11B6
:1000D80060220A128A11FF007F0883120313C300EB
:1000E8007308A30004300310A30CFF3E031D7728F8
:1000F800230803390A128A1160220A128A11FF00A2
:100108007F0883120313C40072080F390A128A1178
:1001180060220A128A11FF007F0883120313C100AC
:100128007208A30004300310A30CFF3E031D972898
:1001380023080F390A128A1160220A128A11FF0055
:100148007F0883120313C20071080F390A128A113B
:1001580060220A128A11FF007F0883120313BF006E
:100168007108A30004300310A30CFF3E031DB72839
:1001780023080F390A128A1160220A128A11FF0015
:100188007F0883120313C00070080F390A128A11FE
:1001980060220A128A11FF007F0883120313BD0030
:1001A8007008A30004300310A30CFF3E031DD728DA
:1001B80023080F390A128A1160220A128A11FF00D5
:1001C8007F0883120313BE0008000A128A1118243C
:1001D8000A128A11D03083120313A0000030A10044
:1001E8000A128A1105240A128A1100308312031395
:1001F800A000A1000A128A1105240A128A110A1203
:100208008A1118240A128A11D13083120313A0000C
:100218000030A1000A128A1105240A128A1101303D
:1002280083120313A0000030A1000A128A1153237D
:100238000A128A11831203132008FF007F08F500B1
:100248000130A0000030A1000A128A1153230A12BB
:100258008A11831203132008FF007F08F40001307D
:10026800A0000030A1000A128A1153230A128A1131
:10027800831203132008FF007F08F3000130A00059
:100288000030A1000A128A1153230A128A1183121C
:1002980003132008FF007F08BC000130A0000030D5
:1002A800A1000A128A1153230A128A118312031316
:1002B8002008FF007F08F2000130A0000030A100F4
:1002C8000A128A1153230A128A118312031320086F
:1002D800FF007F08F1000030A000A1000A128A1177
:1002E80053230A128A11831203132008FF007F0880
:1002F800F0000A128A110F240A128A110800B5297F
:1003080042089900F72941089900F7292F309900E8
:10031800F72940089900F7293F089900F7293E086E
:100328009900F7293D089900F72920309900F72905
:1003380044089900F72943089900F7293A309900A9
:10034800F72946089900F72945089900F729480828
:100358009900F72947089900F7290A309900BA0146
:10036800F729831203133A08F600F7017708003AD1
:100378000319BF29F7297608013A03198429033A92
:1003880003198729013A03198A29073A03198D297C
:10039800013A03199029033A03198A29013A0319E2
:1003A80093290F3A03199629013A03199929033A0F
:1003B80003199C29013A03199F29073A0319A2290D
:1003C800013A0319A529033A0319A829013A03197F
:1003D800A2291F3A0319AB29013A0319AE29033A96
:1003E8000319B129F7290800003083120313AC0060
:1003F8000030AB000030AA000030A9002308220416
:10040800210420040319092A0A2A572AAD01AD0A32
:100418001A2A0130A8000310A00DA10DA20DA30DEA
:10042800A80B0F2A0130FF007F08AD07A31F1D2A64
:100438001E2A0D2A0130A8000310A90DAA0DAB0D24
:10044800AC0DA80B202A23082702031D352A2208F1
:100458002602031D352A21082502031D352A2008F6
:100468002402031C382A392A482A2008A402210811
:10047800031C210FA5022208031C220FA602230831
:10048800031C230FA702291401300310A30CA20C8C
:10049800A10CA00CFF3E031D492A0130AD02031D2B
:1004A800562A572A1E2A2C08A3002B08A2002A081D
:1004B800A1002908A000080083120313A200782ACB
:1004C8003030A02A3130A02A3230A02A3330A02A76
:1004D8003430A02A3530A02A3630A02A3730A02A56
:1004E8003830A02A3930A02A2208A000A10121080A
:1004F800003A0319802A642A2008003A0319642A5A
:10050800013A0319662A033A0319682A013A0319BA
:100518006A2A073A03196C2A013A03196E2A033A20
:100528000319702A013A0319722A0F3A0319742A17
:10053800013A0319762A642A08000C1EA42AA52A5F
:10054800B32A831603130C120130FF007F088312AD
:100558000313BA070A128A1183210A128A110B1D82
:10056800B62AB72ACC2A0B116430831203138100F0
:100578000130FF007F08C90702304906031DC52A5C
:10058800C62ACC2A831603130C1683120313C90137
:10059800831203138C1ED12AD22AD62A1A08FF00E6
:1005A8007F08B9007B08FF007A088A007908840070
:1005B800780E8300FE0E7E0E090028308312031386
:1005C8009400831603139101831203132E08B200BB
:1005D8002F08B3003008B4003108B500023003100A
:1005E800B20DB30DB40DB50DFF3E031DF32A35084A
:1005F800A3003408A2003308A1003208A00000308C
:10060800A7003D30A6000930A5000030A4000A125A
:100618008A11F8210A128A11831203132008FF3E57
:1006280083160313930094018715071608001430E6
:100638000A128A1185230A128A110A128A11B6230C
:100648000A128A110A128A11E2230A128A110A125C
:100658008A11E9200A128A11023083120313B800A2
:100668000430B700B930B600B60B382BB70B382BAF
:10067800B80B382B3F2B0A128A1128200A128A112C
:10068800831203133903031D4A2B4B2B4E2B0130C6
:1006980086002B2B86012B2B0A128A1112280A128C
:1006A8008A11F8230A128A118316031391150A1264
:1006B8008A11F8230A128A11831203131308A2005D
:1006C800A3012208A4002308A5000A128A11F8230E
:1006D8000A128A118312031320032104031D752BA8
:1006E800762B7A2B8316031391127D2B8316031313
:1006F80091161116831203132508A1002408A000DF
:10070800080083120313A200A12B831603130F12F0
:100718008F120F13B42B831603130F168F120F1398
:10072800B42B831603130F168F160F17B42B8316CB
:1007380003130F128F160F17B42B2208A000A10164
:100748002108003A0319A92B9B2B2008003A03190A
:10075800892B013A03198F2B063A0319952B9B2BEA
:100768000F140800831203138501860183160313EF
:100778008601870183160317880189010B11D73079
:100788008316031381008B170B178B16FA3083120D
:1007980003138100831603130C168C160030831282
:1007A8000313B1000130B0008630AF00A030AE00B6
:1007B8000A128A11E1220A128A1108008316031309
:1007C80018121815181383160317871183160313A5
:1007D8009A011930990083120313981718131816E1
:1007E8008316031398160800831603131419FD2B98
:1007F800FE2BF82B11081F39031D032C042CF82B92
:1008080008000A128A11F8230A128A1183120313A4
:100818002008930008000A128A11F8230A128A1184
:1008280083160313111508000A128A11F8230A12F5
:100838008A11831603131114080064008001840AC6
:0A0848000406031900340406222CF4
:04400E00D420FF3F7C
:00000001FF
