:020000040000FA
:060000000A128A11F82F1C
:100E34008312031386018801071087108901870133
:100E44008316031788018901831603138601880119
:100E54008901E03087000800003083120313071B68
:100E64000130F2007203031D382F392F3B2FF30199
:100E7400F30A7303031D3F2F402F522F7208031DE3
:100E8400442F452F522F0608031D492F4A2F4D2F5B
:100E940001308600512F0608F40074078600F30120
:100EA4000800003083120313871B0130F000700325
:100EB400031D5D2F5E2F602FF101F10A7103031DE5
:100EC400642F652F772F7008031D692F6A2F772FE2
:100ED4000808031D6E2F6F2F722F01308800762FA4
:100EE4000808F40074078800F10108008312031352
:100EF4000910891009118601870188010630F6005E
:100F04001330F500AD30F400F40B862FF50B862F6B
:100F1400F60B862F8D2F83120313091489100911E0
:100F24000630F6001330F500AD30F400F40B982FC2
:100F3400F50B982FF60B982F9F2F8312031309108C
:100F4400891409110630F6001330F500AD30F400B1
:100F5400F40BAA2FF50BAA2FF60BAA2FB12F83128D
:100F6400031309108910091508000A128A111A2797
:100F74000A128A11831203138716871EC22FC32FE6
:100F8400C92F0A128A1178270A128A11BC2F4130FC
:100F94000602031CCE2FCF2FD72F071489018716E3
:100FA400871ED52FD62FD12FC32F41300802031C03
:100FB400DC2FDD2FE52F871489018716871EE32F89
:100FC400E42FDF2FC32F091DE82FE92FF42F0A1276
:100FD4008A112E270A128A110A128A1153270A1219
:100FE4008A11BC2FBC2F0A128A110028F001F101CA
:0C0FF400F201F30183010A128A11B72FE9
:04400E00D120FF3F7F
:00000001FF
