:020000040000FA
:060000000A128A11F82F1C
:100EC800831203138601880189018701831603179A
:100ED8008801890183160313860188018901E0309E
:100EE800870008000A128A1164270A128A118312DD
:100EF80003138716871E812F822F882F0A128A11C3
:100F0800BA270A128A117B2F091D8B2F8C2F7B2F52
:100F18000A128A1195270A128A117B2F0A128A113E
:100F28000028003083120313071B0130F000700300
:100F3800031D9F2FA02FA22FF301F30A7303031D94
:100F4800A62FA72FB92F7008031DAB2FAC2FB92FD1
:100F58000608031DB02FB12FB42F01308600B82F1B
:100F68000608F40074078600F301080083120313CF
:100F7800091089100911860187010630F60013301F
:100F8800F500AD30F400F40BC72FF50BC72FF60BA7
:100F9800C72FCE2F831203130914891009110630A5
:100FA800F6001330F500AD30F400F40BD92FF50B33
:100FB800D92FF60BD92FE02F8312031309108914A8
:100FC80009110630F6001330F500AD30F400F40BCB
:100FD800EB2FF50BEB2FF60BEB2FF22F83120313EE
:100FE8000910891009150800F001F101F201F30157
:080FF80083010A128A11762F11
:04400E00D120FF3F7F
:00000001FF
