:020000040000FA
:060000000A128A110C280F
:10000800FE00030EF0000A08F1000A128A11A22964
:100018000A128A110F28FA01FB0183010A128A11B8
:10002800152883160313880114300A128A11D42064
:100038000A128A110A128A1182200A128A11F201FE
:10004800F301F40120300A128A1151210A128A118F
:100058000A128A1120210A128A118A300A128A1178
:1000680039210A128A11F601F60A01300A128A1198
:1000780056200A128A1101300A128A11FB200A122C
:100088008A11F601F60A02300A128A1156200A125B
:100098008A110A128A11AD200A128A1137280A1207
:1000A8008A110C28F7007703031D5B285C286C284D
:1000B80076087F3EFF007F08F8007808FF007F0879
:1000C800F90079080A128A1139210A128A1181283D
:1000D80002307706031D7128722881287608BF3EF2
:1000E800FF007F08F8007808FF007F08F90079080A
:1000F8000A128A1139210A128A110800831203137D
:100108008501860187018801831603178801081471
:100118008901831603138501183086008801103081
:1001280087008312031307150B110C130B10D7301C
:100138008316031381008B130B138B110C178B166B
:10014800EC30831203138100831603130C168C15ED
:1001580008008312031307110D30F400FB30F3007D
:10016800F30BB428F40BB428B92800300A128A110A
:10017800A9210A128A110A128A1192210A128A11D5
:100188008312031385000D30F400FB30F300F30BEA
:10019800CB28F40BCB28D0288312031307150800AB
:1001A800F200EE28831603130F128F120F13F9288B
:1001B800831603130F168F120F13F92883160313D0
:1001C8000F168F160F17F928831603130F128F16A1
:1001D8000F17F9287208003A0319D628013A0319AB
:1001E800DC28063A0319E228E8280F140800F7006B
:1001F800F501F60112297508770784000A128A1199
:100208007D210A128A110A128A1167210A128A119B
:100218000130F5070318F60A0030F6077508770766
:1002280084000A128A117D210A128A11003A031DDC
:100238001E291F29FF28080038300A128A1139217F
:100248000A128A110C300A128A1139210A128A11EB
:1002580006300A128A1139210A128A1180300A12CC
:100268008A1139210A128A110800F50075080A1244
:100278008A11AF210A128A118312031386100614F9
:100288004130F400EE30F300F30B4829F40B482911
:1002980000008312031306100800F50083160313E9
:1002A8008712751D582959295D29740894008715E6
:1002B8006129720874049400871175087304831205
:1002C800031394000800F4008312031386147408BF
:1002D8000A128A11AF210A128A1183120313061413
:1002E8008530F300F30B762983120313061086106A
:1002F800080001308A000408840A82070034533455
:1003080031342034203420342034533432342034EF
:100318002034203420345334333400340A128A1100
:100328009B210A128A1183120313130808008316EB
:100338000313141CA029A1299B29080071088A000D
:10034800700E8300FE0E7E0E0900F2007208831202
:10035800031393000800F200720883120313880045
:0203680008008B
:04400E00D420FF3F7C
:00000001FF
