:020000040000FA
:060000000A128A110C280F
:10000800FE00030EF0000A08F1000A128A11222CE1
:100018000A128A110F2883133B30FD000430FE00BA
:100028000930FF00323084000A128A11FA230A12BA
:100038008A11BB01BC01FA01FB0183010A128A1172
:100048008329831203133B08FF007F08BC00333069
:10005800A0000030A1003C08A800A9012808F2006F
:100068002908F3006430F4000030F5000A128A1100
:1000780040230A128A11730883120313A30072081B
:10008800A2000A128A111A210A128A118312031372
:100098002108F9002008F8006430A0000030A10011
:1000A8007908A3007808A2000A128A111A210A12F4
:1000B8008A11831203132008FF007F08B50033302C
:1000C800A0000030A1003C08A800A9012808F200FF
:1000D8002908F3006430F4000030F5000A128A1190
:1000E80040230A128A11730883120313A3007208AB
:1000F800A2000A128A111A210A128A118312031302
:100108002008AA002108AB003508AC00AD012C0876
:10011800F2002D08F3009C30F400FF30F5000A12BD
:100128008A1140230A128A117208831203132A07BC
:10013800F80073080318730A2B07F9000A30A000A7
:100148000030A1007908A3007808A2000A128A11D9
:100158001A210A128A11831203132008FF007F084C
:10016800B6003330A0000030A1003C08A800A90167
:100178002808F2002908F3006430F4000030F50084
:100188000A128A1140230A128A1173088312031370
:10019800A3007208A2000A128A111A210A128A11EF
:1001A800831203132008AA002108AB009C30FF002B
:1001B8007F08F20035080A128A11E1230A128A110F
:1001C80083120313AC00F630FF007F08F2003608F4
:1001D8000A128A11E1230A128A11831203132C07C7
:1001E8002A07FF007F08B70035080A128A11632220
:1001F8000A128A11FF007F0883120313B50036081C
:100208000A128A1163220A128A11FF007F088312D8
:100218000313B60037080A128A1163220A128A11D8
:10022800FF007F0883120313B7000800831203132B
:10023800A501A11F202921292829A009A109A00A6F
:100248000319A10AA501A50AA31F2B292C293529C1
:10025800A209A309A20A0319A30A0130FF007F0813
:10026800A506A601A7012008210403193C293D2958
:100278007429A401A40A4B2901300310A00DA10D73
:10028800FF3E031D41290130FF007F08A407A11F7D
:100298004E294F29402901300310A60DA70DFF3E16
:1002A800031D502921082302031D5C29200822026E
:1002B800031C5F29602967292008A2022108031C62
:1002C800A303A302261401300310A10CA00CFF3EC7
:1002D800031D68290130A402031D732974294F29BD
:1002E80025080319782979297E29A609A709A60AC4
:1002F8000319A70A2708A1002608A00008008316EA
:100308000313880114300A128A1119230A128A1158
:100318000A128A11C6220A128A11F201F301F401A3
:1003280020300A128A11B5230A128A110A128A1178
:1003380084230A128A118A300A128A119D230A120A
:100348008A11F601F60A01300A128A119A220A1253
:100358008A110130F5008030F6000A128A11D9217D
:100368000A128A11F601F60A02300A128A119A2232
:100378000A128A110A128A111F220A128A11F5001A
:100388000030F6000A128A11D9210A128A110A12BB
:100398008A1125200A128A110A128A11F0220A12D9
:1003A8008A11A5290A128A110C2883120313B00195
:1003B800B101022A30087507F8007608F70003181B
:1003C800F70AB01FE829F7037708F90079088312BC
:1003D8000313FF00780884000A128A1165230A12A1
:1003E8008A110A128A11CB230A128A110130831248
:1003F8000313B0070318B10A0030B10730087507B6
:10040800F8007608F7000318F70AB01F0C2AF7035C
:100418007708F900790883120313FF00780884002D
:100428000A128A1165230A128A11003A031D1D2A2D
:100438001E2ADE2908003030FF007F0883120313CC
:10044800A0003030FF007F08A1003030FF007F0897
:10045800A2002030FF007F08A3002030FF007F08A3
:10046800A4003508FF007F08A5002E30FF007F0894
:10047800A6003608FF007F08A7003708FF007F089E
:10048800A8007630FF007F08A9002030FF007F0811
:10049800AA003030FF007F08AB002E30FF007F0835
:1004A800AC003030FF007F08AD003030FF007F081F
:1004B800AE007630FF007F08AF0020300800F20061
:1004C800792A3030992A3130992A3230992A3330B2
:1004D800992A3430992A3530992A3630992A373072
:1004E800992A3830992A3930992A7208003A03191A
:1004F800652A013A0319672A033A0319692A013A56
:1005080003196B2A073A03196D2A013A03196F2A4E
:10051800033A0319712A013A0319732A0F3A031986
:10052800752A013A0319772A652A0800F700770324
:10053800031D9F2AA02AB02A76087F3EFF007F0865
:10054800F8007808FF007F08F90079080A128A1174
:100558009D230A128A11C52A02307706031DB52A7F
:10056800B62AC52A7608BF3EFF007F08F80078083B
:10057800FF007F08F90079080A128A119D230A12E0
:100588008A110800831203138501860187018801F7
:10059800831603178801081489018316031385013C
:1005A80086018801103087008312031307150B1189
:1005B8000C130B10D7308316031381008B130B1306
:1005C8008B110C178B16EC308312031381008316E2
:1005D80003130C168C1508008312031307110D3032
:1005E800F400FB30F300F30BF72AF40BF72AFC2A8C
:1005F80000300A128A1129240A128A110A128A1151
:1006080012240A128A11FF007F0883120313BB0009
:100618000D30F400FB30F300F30B102BF40B102B10
:10062800152B8312031307150800F200332B8316CA
:1006380003130F128F120F133E2B831603130F167B
:100648008F120F133E2B831603130F168F160F17D7
:100658003E2B831603130F128F160F173E2B7208AB
:10066800003A03191B2B013A0319212B063A0319E7
:10067800272B2D2B0F140800F601F701721C452BB0
:10068800462B4C2B7408F6070318F70A7508F7076A
:1006980001300310F40DF50DFF3E031D4D2B013005
:1006A8000310F30CF20CFF3E031D542B7208730465
:1006B800031D5F2B602B422B7708F3007608F200AE
:1006C8000800FF1B6F2B83137F1883170008840A09
:1006D8000319FF0A080003308A000408840A820705
:1006E800003453343134203420342034203453340B
:1006F800323420342034203420345334333400341A
:1007080038300A128A119D230A128A110C300A12F3
:100718008A119D230A128A1106300A128A119D2312
:100728000A128A1180300A128A119D230A128A112C
:100738000800F50075080A128A112F240A128A1176
:1007480083120313861006144130F400EE30F300D0
:10075800F30BAC2BF40BAC2B000083120313061025
:100768000800F500831603138712751DBC2BBD2BDB
:10077800C12B740894008715C52B72087404940063
:100788008711750873048312031394000800F4009A
:1007980083120313861474080A128A112F240A126A
:1007A8008A118312031306148530F300F30BDA2B36
:1007B80083120313061086100800F400F301741C5A
:1007C800E62BE72BEB2B7208FF007F08F3070310DB
:1007D800F20D0310F40C7408031DF32BF42BE32B18
:1007E800730808007E088A007F0882000A128A11AE
:1007F800F6230A128A118000840A04087D06031968
:100808000034FF0A0319FE0AFA2B3034303430342E
:100818003034303430343034303430340A128A11C1
:100828001B240A128A118312031313080800831663
:100838000313141C202C212C1B2C080071088A007F
:10084800700E8300FE0E7E0E0900F20072088312FD
:10085800031393000800F200720883120313880040
:02086800080086
:04400E00D420FF3F7C
:00000001FF
