:020000040000FA
:060000000A128A1110280B
:10000800FE00030EF0000A08F100831203137F08B4
:10001800F2000A128A11992D0A128A1113288313E1
:100028003E30FD000730FE00BA30FF003530840056
:100038000A128A11AB270A128A110A128A11DF27BB
:100048000A128A11FA00BE01BF01C001C101C20132
:10005800C301C401C501F801F90183010A128A111B
:100068000E2C831203134108FF007F08F900453066
:100078007902031C40284128E828BA30A200003041
:10008800A3007908BB3EF300FF3003180030F400EA
:100098009630F5000030F6000A128A11F9250A1286
:1000A8008A11740883120313A5007308A4000A12A6
:1000B8008A11A5230A128A11831203132208FF004A
:1000C8007F08F9006430A2000030A3007908AA0074
:1000D800AB012A08A4002B08A5000A128A11A5233F
:1000E8000A128A11831203132208FF007F08FA00FC
:1000F8000A30A2000030A3007A08AA00AB012A083F
:10010800F3002B08F4009C30F500FF30F6000A12CB
:100118008A11F9250A128A117908730783120313C1
:10012800A40074080318740AA5000A128A11A523EA
:100138000A128A11831203132208FF007F08B600EF
:100148009C30FF007F08F3007A080A128A11922770
:100158000A128A1183120313AA00F630FF007F08DF
:10016800F30036080A128A1192270A128A1183129A
:1001780003132A077907FF007F08B7007A080A12D5
:100188008A1162250A128A11FF007F08FA00831279
:10019800031336080A128A1162250A128A11FF000F
:1001A8007F0883120313B60037080A128A116225E2
:1001B8000A128A11FF007F0883120313B700203048
:1001C800FF007F08B5008E29BB30A200FF30A300D6
:1001D8007908BB3EF300FF3003180030F4003730D5
:1001E800F5000030F6000A128A11F9250A128A1160
:1001F800740883120313A5007308A4000A128A1155
:10020800A5230A128A11831203132208FF007F080C
:10021800F9006430A2000030A3007908AA00AB01FD
:100228002A08A4002B08A5000A128A11A5230A127D
:100238008A11831203132208FF007F08FA000A308C
:10024800A2000030A3007A08AA00AB012A08F30034
:100258002B08F4009C30F500FF30F6000A128A11D2
:10026800F9250A128A117908730783120313A40067
:1002780074080318740AA5000A128A11A5230A1221
:100288008A11831203132208FF007F08B6009C30EE
:10029800FF007F08F3007A080A128A1192270A12CF
:1002A8008A1183120313AA00F630FF007F08F300B7
:1002B80036080A128A1192270A128A118312031326
:1002C8002A077907FF007F08B7007A080A128A11FF
:1002D80062250A128A11FF007F08FA0083120313AD
:1002E80036080A128A1162250A128A11FF007F084D
:1002F80083120313B60037080A128A1162250A12FC
:100308008A11FF007F0883120313B7002D30FF0006
:100318007F08B5000800831203133F08FF007F0819
:10032800C2003330A2000030A3004208AA00AB018B
:100338002A08F3002B08F4006430F5000030F600BA
:100348000A128A11F9250A128A11740883120313F2
:10035800A5007308A4000A128A11A5230A128A119B
:10036800831203132308B1002208B0006430A200EE
:100378000030A3003108A5003008A4000A128A1131
:10038800A5230A128A11831203132208FF007F088B
:10039800B8003330A2000030A3004208AA00AB0125
:1003A8002A08F3002B08F4006430F5000030F6004A
:1003B8000A128A11F9250A128A1174088312031382
:1003C800A5007308A4000A128A11A5230A128A112B
:1003D800831203132208AC002308AD003808AE00CE
:1003E800AF012E08F3002F08F4009C30F500FF3011
:1003F800F6000A128A11F9250A128A117308831263
:1004080003132C07B00074080318740A2D07B100F1
:100418000A30A2000030A3003108A5003008A4006B
:100428000A128A11A5230A128A11831203132208B9
:10043800FF007F08B9003330A2000030A300420853
:10044800AA00AB012A08F3002B08F4006430F50079
:100458000030F6000A128A11F9250A128A11740866
:1004680083120313A5007308A4000A128A11A52396
:100478000A128A11831203132208AC002308AD0064
:100488009C30FF007F08F30038080A128A1192276F
:100498000A128A1183120313AE00F630FF007F0898
:1004A800F30039080A128A1192270A128A11831254
:1004B80003132E072C07FF007F08BA0038080A121A
:1004C8008A1162250A128A11FF007F08831203131A
:1004D800B80039080A128A1162250A128A11FF0027
:1004E8007F0883120313B9003A080A128A11622599
:1004F8000A128A11FF007F0883120313BA0008004A
:100508007803031D882A892A8D2A831203133B083E
:10051800990002307806031D922A932A972A83129B
:1005280003133C08990003307806031D9C2A9D2A72
:10053800A12A831203133D08990004307806031D8D
:10054800A62AA72AAB2A2C30831203139900053058
:100558007806031DB02AB12AB52A20308312031366
:10056800990006307806031DBA2ABB2ABF2A8312CF
:1005780003133808990007307806031DC42AC52AD2
:10058800C92A2E3083120313990008307806031DF8
:10059800CE2ACF2AD32A83120313390899000930A7
:1005A8007806031DD82AD92ADD2A831203133A08AC
:1005B80099000A307806031DE22AE32AE72A2C303C
:1005C8008312031399000B307806031DEC2AED2AD9
:1005D800F12A20308312031399000C307806031D8A
:1005E800F62AF72AFB2A83120313350899000D30DF
:1005F8007806031D002B012B052B7A0883120313A1
:1006080099000E307806031D0A2B0B2B0F2B831233
:100618000313360899000F307806031D142B152B89
:10062800192B831203133708990010307806031D1D
:100638001E2B1F2B242B0D30831203139900F80156
:100648000800643083120313A2000030A30043089B
:10065800AA00AB012A08A4002B08A5000A128A11D7
:10066800A5230A128A11831203132208FF007F08A8
:10067800BB000A30A2000030A3003B08AA00AB016F
:100688002A08F3002B08F4009C30F500FF30F60030
:100698000A128A11F9250A128A11831203134308D0
:1006A8007307A40074080318740AA5000A128A11B3
:1006B800A5230A128A11831203132208FF007F0858
:1006C800BC009C30FF007F08F3003B080A128A1127
:1006D80092270A128A1183120313AA00F630FF0028
:1006E8007F08F3003C080A128A1192270A128A111D
:1006F800831203132A074307FF007F08BD003B0846
:100708000A128A1162250A128A11FF007F088312D1
:100718000313BB003C080A128A1162250A128A11C7
:10072800FF007F0883120313BC003D080A128A11D8
:1007380062250A128A11FF007F0883120313BD0085
:10074800080083120313A701A31FAB2BAC2BB32BF9
:10075800A209A309A20A0319A30AA701A70AA51FA8
:10076800B62BB72BC02BA409A509A40A0319A50AFF
:100778000130FF007F08A706A801A9012208230469
:100788000319C72BC82BFF2BA601A60AD62B0130AD
:100798000310A20DA30DFF3E031DCC2B0130FF005B
:1007A8007F08A607A31FD92BDA2BCB2B0130031008
:1007B800A80DA90DFF3E031DDB2B23082502031DF1
:1007C800E72B22082402031CEA2BEB2BF22B22082E
:1007D800A4022308031CA503A50228140130031052
:1007E800A30CA20CFF3E031DF32B0130A602031D30
:1007F800FE2BFF2BDA2B27080319032C042C092CBA
:10080800A809A909A80A0319A90A2908A3002808F8
:10081800A200080083160313880114300A128A11F3
:10082800C9260A128A110A128A11F0260A128A1196
:100838000A128A1166270A128A11F301F401F501D6
:1008480020300A128A1150270A128A110A128A11B4
:1008580073240A128A110130FF007F0883120313E0
:10086800BE07F701F70A01300A128A11CB250A12CE
:100878008A110130F6008030F7000A128A11D82454
:100888000A128A11F701F70A02300A128A11CB25D7
:100898000A128A110A128A111E250A128A11F600F2
:1008A8000030F7000A128A11D8240A128A110A1293
:1008B8008A118F210A128A110A128A1125230A1213
:1008C8008A110A128A1135200A128A110A128A110B
:1008D80024260A128A112F2C0A128A111028C330D2
:1008E80083120313A100CC30A000A00B792CA10B1C
:1008F800792C000000300A128A11D9270A128A11AD
:10090800023083120313A2000430A100B930A00002
:10091800A00B8C2CA10B8C2CA20B8C2C932C303084
:100928000A128A1136270A128A11413083120313D8
:10093800A100ED30A000A00B9F2CA10B9F2CA42C94
:1009480030300A128A1136270A128A11E4308312CB
:100958000313A000AF2CB02CA00BAE2C000030303D
:100968000A128A1136270A128A1138300A128A1195
:1009780036270A128A1110300A128A1136270A12EB
:100988008A1101300A128A1136270A128A11063092
:100998000A128A1136270A128A110C300A128A1191
:1009A80036270A128A11080083120313B301B4010F
:1009B800012D33087607B1007708B0000318B00A94
:1009C800B31FE72CB003831203133008B2003208B8
:1009D800FF00310884000A128A1117270A128A11A7
:1009E8000A128A117C270A128A1101308312031312
:1009F800B3070318B40A0030B40733087607B10008
:100A08007708B0000318B00AB31F0B2DB003831288
:100A180003133008B2003208FF00310884000A12BC
:100A28008A1117270A128A11003A031D1C2D1D2D41
:100A3800DD2C0800831203133B08FF007F08A00089
:100A48003C08FF007F08A1003D08FF007F08A200C6
:100A58002030FF007F08A3002030FF007F08A4009B
:100A68003808FF007F08A5002E30FF007F08A60089
:100A78003908FF007F08A7003A08FF007F08A80090
:100A88007630FF007F08A9002030FF007F08AA0009
:100A98003508FF007F08AB007A08FF007F08AC002C
:100AA8003608FF007F08AD003708FF007F08AE005A
:100AB8004330FF007F08AF0020300800F300782D96
:100AC8003030982D3130982D3230982D3330982D84
:100AD8003430982D3530982D3630982D3730982D64
:100AE8003830982D3930982D7308003A0319642D41
:100AF800013A0319662D033A0319682D013A0319BF
:100B08006A2D073A03196C2D013A03196E2D033A21
:100B18000319702D013A0319722D0F3A0319742D18
:100B2800013A0319762D642D08000C1E9C2D9D2D6D
:100B3800A92D0130FF007F08F8070A128A118422C4
:100B48000A128A11831603130C120B1DAC2DAD2D3E
:100B5800C12D0B116430831281000130FF007F0822
:100B6800C00702304006031DBA2DBB2DC12D8316C8
:100B780003130C1683120313C00172088312FF00BB
:100B880071088A00700E8300FE0E7E0E0900831223
:100B98000313A0002003031DD22DD32DE32D7708C6
:100BA8007F3EFF007F08A1002108FF007F08A20008
:100BB80022080A128A1136270A128A11F82D0230E1
:100BC8002006031DE82DE92DF82D7708BF3EFF000C
:100BD8007F08A1002108FF007F08A20022080A124E
:100BE8008A1136270A128A11080083120313A001FA
:100BF800A101731C002E012E092E75088312031300
:100C0800A0070318A10A7608A10701300310F50D03
:100C1800F60DFF3E031D0A2E01300310F40CF30CF1
:100C2800FF3E031D112E73087404031D1C2E1D2E78
:100C3800FD2D831203132108F4002008F300080097
:100C4800831203133E03031D2A2E2B2E302E0A1265
:100C58008A11A0260A128A110330831203133E0652
:100C6800031D372E382E3D2E0A128A1177260A12B6
:100C78008A110530831203133E06031D442E452EA8
:100C88004D2E0A128A114E260A128A118312031354
:100C9800BE0108008312031307100D30F500FB3066
:100CA800F400F40B552EF50B552E5A2E00300A126F
:100CB8008A11D3270A128A110A128A11C3270A1223
:100CC8008A11FF007F0883120313C3000D30F5005B
:100CD800FB30F400F40B6E2EF50B6E2E732E831280
:100CE8000313071408008312031387100D30F5004F
:100CF800FB30F400F40B7E2EF50B7E2E832E003095
:100D08000A128A11D3270A128A110A128A11C327D2
:100D18000A128A11FF007F0883120313C1000D30E5
:100D2800F500FB30F400F40B972EF50B972E9C2E54
:100D380083120313871408008312031307110D305D
:100D4800F500FB30F400F40BA72EF50BA72EAC2E04
:100D580000300A128A11D3270A128A110A128A113C
:100D6800C3270A128A11FF007F0883120313BF00EA
:100D78000D30F500FB30F400F40BC02EF50BC02E3F
:100D8800C52E8312031307150800F300E32E8316FC
:100D980003130F128F120F13EE2E831603130F1661
:100DA8008F120F13EE2E831603130F168F160F17BD
:100DB800EE2E831603130F128F160F17EE2E7308DD
:100DC800003A0319CB2E013A0319D12E063A03191A
:100DD800D72EDD2E0F140800831203138501860118
:100DE800870188018316031788010814890183166F
:100DF80003138501860188011030870083120313CD
:100E080007150B110C130B10D73083160313810031
:100E18008B170B178B16FA30831203138100831676
:100E280003130C160800FF1B212F83137F18831749
:100E38000008840A0319FF0A080007308A0004081A
:100E4800840A820700345334313420342034203467
:100E58002034533432342034203420342034533472
:100E680033340034F60083120313861076080A120E
:100E78008A11D9270A128A118312031306148230A1
:100E8800F500DD30F400F40B472FF50B472F4C2FFE
:100E98008312031306100800F60083160313871243
:100EA800761D572F582F5C2F750894008715602FD3
:100EB8007308750494008711760874048312031369
:100EC80094000800831603131812181518138316B4
:100ED80003178711831603139A0119309900831297
:100EE8000313981718131816831603139816080077
:100EF800F50083120313861475080A128A11D9277C
:100F08000A128A118312031306148530F400F40BB5
:100F18008B2F83120313061086100800F500F401C6
:100F2800751C972F982F9C2F7308FF007F08F407D4
:100F38000310F30D0310F50C7508031DA42FA52F3E
:100F4800942F740808007E088A007F0882000A121D
:100F58008A11A7270A128A118000840A04087D06CC
:100F680003190034FF0A0319FE0AAB2F303430345A
:100F780030343034303430343034303430340A1291
:100F88008A11CC270A128A11831203131308080046
:100F980083160313141CD12FD22FCC2F0800F30073
:100FA80073088312031393000800F3007308831275
:080FB800031388000800303427
:04400E00D420FF3F7C
:00000001FF
