:020000040000FA
:060000000A128A1110280B
:10000800FE00030EF1000A08F200831203137F08B2
:10001800F3000A128A111B280A128A111328F60102
:10002800F701F801F90183010A128A11E4288C1DED
:100038001E281F28282808080A128A11F3200A12E5
:100048008A11831203138C110B1C2B282C285F2870
:100058000B10003006180130F8007803031D35280E
:1000680036283828F901F90A7903031D3C283D2868
:1000780047287808031D4128422847280130FF00F7
:100088007F088807F901003086180130F6007603EA
:10009800031D4F2850285228F701F70A7703031D3C
:1000A800562857285F287608031D5B285C285F2898
:1000B80001308802F7017308FF0072088A00710E88
:1000C8008300FE0E7E0E090083120313A00084280D
:1000D800831603130F128F120F1397288316031317
:1000E8000F168F120F139728831603130F168F16E8
:1000F8000F179728831603130F128F160F179728B9
:100108002008F400F5017508003A03198C287E28A8
:100118007408003A03196C28013A03197228063A40
:10012800031978287E280F140800831603178801FE
:10013800890103308316031386008501880108307E
:100148008700831203138601880183160313811322
:100158008B170B17831203138C11831603138C153B
:1001680085168B15151495141614961483120313FB
:10017800A001A101A20124300A128A11C6200A1284
:100188008A110800F400831603138712741DCD2802
:10019800CE28D6288312031322088316031394004B
:1001A8008715DE28831203132008220483160313FD
:1001B8009400871174088312031321049400080023
:1001C80014300A128A1168200A128A110A128A1136
:1001D80099200A128A11EF280A128A111028F000B1
:0A01E800700883120313930008004F
:04400E00D420FF3F7C
:00000001FF
